{
  "contractName": "Logic",
  "abi": [
    {
      "inputs": [],
      "stateMutability": "nonpayable",
      "type": "constructor"
    },
    {
      "inputs": [
        {
          "internalType": "uint256",
          "name": "newMagicNumber",
          "type": "uint256"
        }
      ],
      "name": "setMagicNumber",
      "outputs": [],
      "stateMutability": "nonpayable",
      "type": "function"
    },
    {
      "inputs": [],
      "name": "getMagicNumber",
      "outputs": [
        {
          "internalType": "uint256",
          "name": "",
          "type": "uint256"
        }
      ],
      "stateMutability": "view",
      "type": "function"
    }
  ],
  "bytecode": "0x608060405234801561001057600080fd5b506042600081905550610150806100286000396000f3fe608060405234801561001057600080fd5b50600436106100365760003560e01c80632ba2ed981461003b57806359ff5b5514610057575b600080fd5b610055600480360381019061005091906100c3565b610075565b005b61005f61007f565b60405161006c91906100ff565b60405180910390f35b8060008190555050565b60008054905090565b600080fd5b6000819050919050565b6100a08161008d565b81146100ab57600080fd5b50565b6000813590506100bd81610097565b92915050565b6000602082840312156100d9576100d8610088565b5b60006100e7848285016100ae565b91505092915050565b6100f98161008d565b82525050565b600060208201905061011460008301846100f0565b9291505056fea2646970667358221220dbf2c1c9184d5369b16a9434431534d7a9095a2dc4adb9e5216e798083f2fa0664736f6c634300080d0033",
  "immutableReferences": {},
  "source": "pragma solidity ^0.8.4;\n\ncontract Logic{\n\n    uint magicNumber;\n\n\n//생성자\nconstructor(){\n    magicNumber= 0x42;\n}\n//매직넘버 변환\nfunction setMagicNumber(uint256 newMagicNumber)public{\n    magicNumber = newMagicNumber;\n}\n//매직넘버만 반환\nfunction getMagicNumber() public view returns (uint256){\n    return magicNumber;\n}\n\n\n}\n",
  "sourcePath": "/Users/hangyeonghyeon/Desktop/DelegateCall/contracts/Logic.sol",
  "compiler": {
    "name": "solc",
    "version": "0.8.13+commit.abaa5c0e.Emscripten.clang"
  },
  "schemaVersion": "3.4.6",
  "updatedAt": "2022-05-25T04:13:04.518Z",
  "devdoc": {
    "kind": "dev",
    "methods": {},
    "version": 1
  },
  "userdoc": {
    "kind": "user",
    "methods": {},
    "version": 1
  }
}