{
  "contractName": "Proxy",
  "abi": [
    {
      "stateMutability": "nonpayable",
      "type": "fallback"
    },
    {
      "inputs": [],
      "name": "implementation",
      "outputs": [
        {
          "internalType": "address",
          "name": "",
          "type": "address"
        }
      ],
      "stateMutability": "view",
      "type": "function",
      "constant": true
    },
    {
      "inputs": [
        {
          "internalType": "address",
          "name": "implementation_",
          "type": "address"
        }
      ],
      "name": "setImplementation",
      "outputs": [],
      "stateMutability": "nonpayable",
      "type": "function"
    },
    {
      "inputs": [],
      "name": "getImplementation",
      "outputs": [
        {
          "internalType": "address",
          "name": "",
          "type": "address"
        }
      ],
      "stateMutability": "view",
      "type": "function",
      "constant": true
    }
  ],
  "bytecode": "0x608060405234801561001057600080fd5b50610247806100206000396000f3fe608060405234801561001057600080fd5b50600436106100455760003560e01c80635c60da1b1461006f578063aaf10f421461008d578063d784d426146100ab57610046565b5b604051366000823760008036836000545af43d806000843e816000811461006b578184f35b8184fd5b6100776100c7565b6040516100849190610198565b60405180910390f35b6100956100eb565b6040516100a29190610198565b60405180910390f35b6100c560048036038101906100c091906101e4565b610114565b005b60008054906101000a900473ffffffffffffffffffffffffffffffffffffffff1681565b60008060009054906101000a900473ffffffffffffffffffffffffffffffffffffffff16905090565b806000806101000a81548173ffffffffffffffffffffffffffffffffffffffff021916908373ffffffffffffffffffffffffffffffffffffffff16021790555050565b600073ffffffffffffffffffffffffffffffffffffffff82169050919050565b600061018282610157565b9050919050565b61019281610177565b82525050565b60006020820190506101ad6000830184610189565b92915050565b600080fd5b6101c181610177565b81146101cc57600080fd5b50565b6000813590506101de816101b8565b92915050565b6000602082840312156101fa576101f96101b3565b5b6000610208848285016101cf565b9150509291505056fea2646970667358221220905f369d2a980654e82988ed16326778559b988c440732ae7927018a0cfe5b0c64736f6c634300080d0033",
  "immutableReferences": {},
  "source": "pragma solidity ^0.8.4;\n\ncontract Proxy {\n  //프록시 계약은 구현 주소를 알고 있다.\n  address public implementation;\n  \n  function setImplementation(address implementation_)public{\n    implementation = implementation_;\n  }\n\n  function getImplementation()public view returns(address){\n    return implementation;\n  }\n  fallback() external {\n  assembly {\n    let ptr := mload(0x40)\n    calldatacopy(ptr, 0, calldatasize())\n\n    let result := delegatecall(\n      gas(),\n      sload(implementation.slot),\n      ptr,\n      calldatasize(),\n      0,\n      0\n    )\n\n    let size := returndatasize()\n    returndatacopy(ptr, 0, size)\n\n    switch result\n    case 0 {\n      revert(ptr, size)\n    }\n    default {\n      return(ptr, size)\n    }\n  }\n}\n\n} \n\n",
  "sourcePath": "/Users/hangyeonghyeon/Desktop/DelegateCall/contracts/Proxy.sol",
  "compiler": {
    "name": "solc",
    "version": "0.8.13+commit.abaa5c0e.Emscripten.clang"
  },
  "schemaVersion": "3.4.6",
  "updatedAt": "2022-05-25T04:14:25.425Z",
  "networkType": "ethereum",
  "devdoc": {
    "kind": "dev",
    "methods": {},
    "version": 1
  },
  "userdoc": {
    "kind": "user",
    "methods": {},
    "version": 1
  }
}